:100000000C945D000C9485000C9485000C94850084
:100010000C9485000C9485000C9485000C9485004C
:100020000C9485000C9485000C9485000C9485003C
:100030000C9485000C9485000C9485000C9485002C
:100040000C944C020C9485000C94BC020C94960207
:100050000C9485000C9485000C9485000C9485000C
:100060000C9485000C94850000000008000201003B
:100070000003040700000000000000000000000072
:10008000250028002B0000000000240027002A0083
:10009000040404040404040402020202020203032E
:1000A0000303030301020408102040800102040836
:1000B0001020010204081020BE0411241FBECFEF3F
:1000C000D8E0DEBFCDBF11E0A0E0B1E0E6EEF9E0A0
:1000D00002C005900D92AA35B107D9F722E0AAE532
:1000E000B1E001C01D92A430B207E1F710E0CDE508
:1000F000D0E004C02197FE010E94EB04CC35D1076B
:10010000C9F70E94EE020C94F1040C94000090E0F8
:10011000FC01EC55FF4F249180579F4FFC018491C7
:10012000882399F090E0880F991FFC01EA57FF4F50
:10013000A591B491FC01E458FF4F859194918FB73C
:10014000F894EC91E22BEC938FBF0895AF92BF929D
:10015000CF92DF92EF92FF920F931F93CF93DF9393
:100160006C017B018B01040F151FEB015E01AE18C2
:10017000BF08C017D10759F06991D601ED91FC91E4
:100180000190F081E02DC6010995892B79F7C50111
:10019000DF91CF911F910F91FF90EF90DF90CF9063
:1001A000BF90AF900895FC01538D448D252F30E012
:1001B000842F90E0821B930B541710F0CF96089574
:1001C00001970895FC01918D828D981761F0A28DA1
:1001D000AE0FBF2FB11D5D968C91928D9F5F9F7367
:1001E000928F90E008958FEF9FEF0895FC01918D1D
:1001F000828D981731F0828DE80FF11D858D90E08A
:1002000008958FEF9FEF0895FC01918D228D892F26
:1002100090E0805C9F4F821B91098F73992708950E
:1002200087E691E00E94040121E0892B09F420E097
:10023000822F089580E090E0892B29F00E94100120
:1002400081110C9400000895FC01A48DA80FB92F12
:10025000B11DA35ABF4F2C91848D90E001968F73EE
:100260009927848FA689B7892C93A089B1898C910D
:10027000837080648C93938D848D981306C002885C
:10028000F389E02D80818F7D80830895EF92FF9226
:100290000F931F93CF93DF93EC0181E0888F9B8DA9
:1002A0008C8D98131AC0E889F989808185FF15C063
:1002B0009FB7F894EE89FF896083E889F989808186
:1002C0008370806480839FBF81E090E0DF91CF9155
:1002D0001F910F91FF90EF900895F62E0B8D10E077
:1002E0000F5F1F4F0F731127E02E8C8D8E110CC0E6
:1002F0000FB607FCFACFE889F989808185FFF5CF31
:10030000CE010E942401F1CFEB8DEC0FFD2FF11DEA
:10031000E35AFF4FF0829FB7F8940B8FEA89FB896D
:1003200080818062CFCFCF93DF93EC01888D8823CB
:10033000B9F0AA89BB89E889F9898C9185FD03C048
:10034000808186FD0DC00FB607FCF7CF8C9185FF2D
:10035000F2CF808185FFEDCFCE010E942401E9CF4D
:10036000DF91CF91089590E0FC01E859FF4F24916F
:10037000FC01EC55FF4F3491FC01E057FF4FE49135
:10038000EE23C9F0222339F0233001F1A8F4213003
:1003900019F1223029F1F0E0EE0FFF1FE458FF4F72
:1003A000A591B4918FB7F894EC91611126C0309566
:1003B0003E233C938FBF08952730A9F02830C9F021
:1003C000243049F7809180008F7D03C080918000A8
:1003D0008F7780938000DFCF84B58F7784BDDBCFAC
:1003E00084B58F7DFBCF8091B0008F778093B00074
:1003F000D2CF8091B0008F7DF9CF3E2BDACF60E075
:1004000089E00E94B30160E086E00E94B30160E0F1
:100410008FE00E94B30160E08CE00E94B30160E0D5
:1004200088E00E94B30160E087E00E94B30160E0D1
:1004300085E00E94B30160E084E00E94B30160E0C7
:100440008EE00E94B30160E08DE00E94B30160E0A5
:100450008BE00E94B30160E08AE00C94B301CF937B
:10046000DF93FC0101900020E9F73197AF01481BB1
:10047000590BBC0187E691E00E94A600EC0142E026
:1004800050E062E171E087E691E00E94A6008C0FE7
:100490009D1FDF91CF9108951F920F920FB60F927B
:1004A00011242F933F938F939F93AF93BF9380918A
:1004B000630190916401A0916501B0916601309152
:1004C000620123E0230F2D3758F50196A11DB11DC0
:1004D000209362018093630190936401A09365016E
:1004E000B093660180915E0190915F01A0916001DF
:1004F000B09161010196A11DB11D80935E019093A1
:100500005F01A0936001B0936101BF91AF919F9192
:100510008F913F912F910F900FBE0F901F901895C4
:1005200026E8230F0296A11DB11DD2CF1F920F9274
:100530000FB60F9211242F933F934F935F936F93B6
:100540007F938F939F93AF93BF93EF93FF9387E630
:1005500091E00E942401FF91EF91BF91AF919F9193
:100560008F917F916F915F914F913F912F910F905C
:100570000FBE0F901F9018951F920F920FB60F92FB
:1005800011242F938F939F93EF93FF93E091770123
:10059000F09178018081E0917D01F0917E0182FDF2
:1005A0001BC09081809180018F5F8F7320918101AA
:1005B000821741F0E0918001F0E0E959FE4F958FFC
:1005C00080938001FF91EF919F918F912F910F90D8
:1005D0000FBE0F901F9018958081F4CF789484B54A
:1005E000826084BD84B5816084BD85B5826085BD2F
:1005F00085B5816085BD80916E00816080936E00BD
:1006000010928100809181008260809381008091AE
:10061000810081608093810080918000816080935F
:1006200080008091B10084608093B1008091B0001F
:1006300081608093B00080917A00846080937A001A
:1006400080917A00826080937A0080917A00816044
:1006500080937A0080917A00806880937A0010926B
:10066000C10088E00E94870087E00E94870089E03F
:100670000E94870085E00E94870084E00E94870036
:1006800086E00E9487008EE00E9487008DE00E9435
:1006900087008FE00E9487008BE00E9487008AE03D
:1006A0000E9487008CE00E9487000E94FF01E09179
:1006B0007701F091780182E08083E0917301F091FD
:1006C00074011082E0917501F09176018FEC8083C6
:1006D00010927F01E0917B01F0917C0186E08083A4
:1006E000E0917901F0917A01808180618083E091CD
:1006F0007901F0917A01808188608083E0917901AD
:10070000F0917A01808180688083E0917901F09195
:100710007A0180818F7D808300E010E0C1E0D0E02D
:1007200087E691E00E9404011816190664F487E632
:1007300091E00E94E20090935D0180935C01109231
:100740005B0110925A0180915C0190915D018634A9
:10075000910591F560E088E00E94B30161E087E0D7
:100760000E94B30161E085E00E94B30160E084E093
:100770000E94B30161E089E00E94B30161E086E07C
:100780000E94B30180915A0190915B01892B41F441
:1007900085E191E00E942F02D0935B01C0935A0142
:1007A0000115110509F4BCCF0E941001882309F43A
:1007B000B7CF0E940000B4CF8234910509F561E003
:1007C00088E00E94B30160E087E00E94B30160E02E
:1007D00085E00E94B30161E084E00E94B30161E022
:1007E00089E00E94B30161E086E00E94B30180913C
:1007F0005A0190915B01892B99F680E291E0CACF72
:100800008C34910511F560E088E00E94B30160E04E
:1008100087E00E94B30161E085E00E94B30160E0DF
:1008200084E00E94B30161E089E00E94B30161E0CD
:1008300086E00E94B30180915A0190915B01892B5F
:1008400009F0AECF8BE291E0A5CF8235910511F58D
:1008500060E088E00E94B30161E087E00E94B3019C
:1008600060E085E00E94B30160E084E00E94B30193
:1008700061E089E00E94B30161E086E00E94B3017B
:1008800080915A0190915B01892B09F089CF83E314
:1008900091E080CF8335910561F40E94FF01809142
:1008A0005A0190915B01892B09F07ACF8CE391E09A
:1008B00071CF80359105B1F460E08EE00E94B30104
:1008C00061E08DE00E94B30161E08FE00E94B3011E
:1008D00080915A0190915B01892B09F061CF82E4EC
:1008E00091E058CF81359105B1F461E08EE00E942E
:1008F000B30160E08DE00E94B30161E08FE00E94EF
:10090000B30180915A0190915B01892B09F048CF86
:1009100087E491E03FCF88349105B1F460E08BE04B
:100920000E94B30161E08AE00E94B30161E08CE0C3
:100930000E94B30180915A0190915B01892B09F0CB
:100940002FCF8DE491E026CF8934910509F028CF8F
:1009500061E08BE00E94B30160E08AE00E94B30195
:1009600061E08CE00E94B30180915A0190915B019B
:10097000892B09F015CF82E591E00CCFE7E6F1E095
:100980001382128288EE93E0A0E0B0E08483958326
:10099000A683B78384E091E09183808385EC90E027
:1009A0009587848784EC90E09787868780EC90E039
:1009B000918B808B81EC90E0938B828B82EC90E02A
:1009C000958B848B86EC90E0978B868B118E128EA4
:1009D000138E148E0895EE0FFF1F0590F491E02DF5
:0609E0000994F894FFCF1A
:1009E600000000004601A600D30093010401E200C6
:1009F600F6000D0A00476F20466F72776172640039
:100A0600476F205265766572736500476F204C65A7
:100A1600667400476F2052696768740053544F50DC
:100A260021005069636B00506C61636500486F6C10
:0A0A36006400556E686F6C640000E8
:00000001FF
